{
  "contractName": "Charity",
  "abi": [
    {
      "inputs": [
        {
          "internalType": "address",
          "name": "tf_address",
          "type": "address"
        }
      ],
      "stateMutability": "nonpayable",
      "type": "constructor"
    },
    {
      "anonymous": false,
      "inputs": [
        {
          "indexed": false,
          "internalType": "bool",
          "name": "success",
          "type": "bool"
        },
        {
          "indexed": false,
          "internalType": "bytes",
          "name": "data",
          "type": "bytes"
        }
      ],
      "name": "Transfered",
      "type": "event"
    },
    {
      "inputs": [],
      "name": "transfer_address",
      "outputs": [
        {
          "internalType": "address",
          "name": "",
          "type": "address"
        }
      ],
      "stateMutability": "view",
      "type": "function",
      "constant": true
    },
    {
      "inputs": [
        {
          "internalType": "string",
          "name": "_name",
          "type": "string"
        },
        {
          "internalType": "string",
          "name": "_details",
          "type": "string"
        },
        {
          "internalType": "uint256",
          "name": "_goal",
          "type": "uint256"
        },
        {
          "internalType": "address",
          "name": "_ownerID",
          "type": "address"
        }
      ],
      "name": "CreateCampaign",
      "outputs": [],
      "stateMutability": "nonpayable",
      "type": "function"
    },
    {
      "inputs": [
        {
          "internalType": "uint256",
          "name": "_campaignid",
          "type": "uint256"
        }
      ],
      "name": "get_Campaign_Info",
      "outputs": [
        {
          "internalType": "string",
          "name": "name",
          "type": "string"
        },
        {
          "internalType": "string",
          "name": "details",
          "type": "string"
        },
        {
          "internalType": "uint256",
          "name": "goal",
          "type": "uint256"
        },
        {
          "internalType": "address",
          "name": "owner",
          "type": "address"
        },
        {
          "internalType": "uint256",
          "name": "fund",
          "type": "uint256"
        },
        {
          "internalType": "bool",
          "name": "isopened",
          "type": "bool"
        },
        {
          "internalType": "bool",
          "name": "isvoting",
          "type": "bool"
        }
      ],
      "stateMutability": "view",
      "type": "function",
      "constant": true
    },
    {
      "inputs": [
        {
          "internalType": "bool",
          "name": "_vote",
          "type": "bool"
        }
      ],
      "name": "Votings",
      "outputs": [],
      "stateMutability": "payable",
      "type": "function",
      "payable": true
    },
    {
      "inputs": [],
      "name": "ActivateCampaign",
      "outputs": [],
      "stateMutability": "payable",
      "type": "function",
      "payable": true
    },
    {
      "inputs": [],
      "name": "DeactivateCampaign",
      "outputs": [],
      "stateMutability": "payable",
      "type": "function",
      "payable": true
    },
    {
      "inputs": [
        {
          "internalType": "uint256",
          "name": "_amount",
          "type": "uint256"
        }
      ],
      "name": "Donate",
      "outputs": [],
      "stateMutability": "payable",
      "type": "function",
      "payable": true
    },
    {
      "inputs": [],
      "name": "get_vote_info",
      "outputs": [
        {
          "internalType": "uint256",
          "name": "number_of_votes",
          "type": "uint256"
        },
        {
          "internalType": "uint256",
          "name": "number_of_accept_votes",
          "type": "uint256"
        }
      ],
      "stateMutability": "view",
      "type": "function",
      "constant": true
    }
  ],
  "bytecode": "0x60a0604052604051620000129062000301565b604051809103906000f0801580156200002f573d6000803e3d6000fd5b506000806101000a81548173ffffffffffffffffffffffffffffffffffffffff021916908373ffffffffffffffffffffffffffffffffffffffff16021790555060006002553480156200008157600080fd5b5060405162003d6b38038062003d6b8339818101604052810190620000a79190620003d6565b8073ffffffffffffffffffffffffffffffffffffffff1660808173ffffffffffffffffffffffffffffffffffffffff1660601b8152505060016040518061018001604052806040518060400160405280600181526020017f30000000000000000000000000000000000000000000000000000000000000008152508152602001600081526020016040518060400160405280600181526020017f3000000000000000000000000000000000000000000000000000000000000000815250815260200160008152602001600073ffffffffffffffffffffffffffffffffffffffff16815260200160008152602001600081526020016000815260200160008152602001600081526020016000151581526020016000151581525090806001815401808255809150506001900390600052602060002090600b02016000909190919091506000820151816000019080519060200190620002079291906200030f565b50602082015181600101556040820151816002019080519060200190620002309291906200030f565b506060820151816003015560808201518160040160006101000a81548173ffffffffffffffffffffffffffffffffffffffff021916908373ffffffffffffffffffffffffffffffffffffffff16021790555060a0820151816005015560c0820151816006015560e082015181600701556101008201518160080155610120820151816009015561014082015181600a0160006101000a81548160ff02191690831515021790555061016082015181600a0160016101000a81548160ff021916908315150217905550505050620004b5565b610a28806200334383390190565b8280546200031d9062000436565b90600052602060002090601f0160209004810192826200034157600085556200038d565b82601f106200035c57805160ff19168380011785556200038d565b828001600101855582156200038d579182015b828111156200038c5782518255916020019190600101906200036f565b5b5090506200039c9190620003a0565b5090565b5b80821115620003bb576000816000905550600101620003a1565b5090565b600081519050620003d0816200049b565b92915050565b600060208284031215620003e957600080fd5b6000620003f984828501620003bf565b91505092915050565b60006200040f8262000416565b9050919050565b600073ffffffffffffffffffffffffffffffffffffffff82169050919050565b600060028204905060018216806200044f57607f821691505b602082108114156200046657620004656200046c565b5b50919050565b7f4e487b7100000000000000000000000000000000000000000000000000000000600052602260045260246000fd5b620004a68162000402565b8114620004b257600080fd5b50565b60805160601c612e53620004f0600039600081816104400152818161082e01528181610c7c015281816113780152611e9e0152612e536000f3fe60806040526004361061007b5760003560e01c80638e39cfd41161004e5780638e39cfd41461010c578063906bcfa914610116578063cd95331414610159578063daa55102146101635761007b565b806302d2ab811461008057806333ac26271461009c578063458c2875146100b85780634edca928146100e1575b600080fd5b61009a600480360381019061009591906122ef565b61018f565b005b6100b660048036038101906100b191906123ab565b610606565b005b3480156100c457600080fd5b506100df60048036038101906100da9190612318565b610a57565b005b3480156100ed57600080fd5b506100f6610c7a565b604051610103919061261a565b60405180910390f35b610114610c9e565b005b34801561012257600080fd5b5061013d600480360381019061013891906123ab565b6114e5565b60405161015097969594939291906126fb565b60405180910390f35b610161611869565b005b34801561016f57600080fd5b5061017861200b565b604051610186929190612893565b60405180910390f35b4260038190555060b46001600254815481106101d4577f4e487b7100000000000000000000000000000000000000000000000000000000600052603260045260246000fd5b90600052602060002090600b0201600801546101f09190612955565b60035410610233576040517f08c379a000000000000000000000000000000000000000000000000000000000815260040161022a90612798565b60405180910390fd5b60016002548154811061026f577f4e487b7100000000000000000000000000000000000000000000000000000000600052603260045260246000fd5b90600052602060002090600b020160040160009054906101000a900473ffffffffffffffffffffffffffffffffffffffff1673ffffffffffffffffffffffffffffffffffffffff163373ffffffffffffffffffffffffffffffffffffffff16141561030f576040517f08c379a0000000000000000000000000000000000000000000000000000000008152600401610306906127b8565b60405180910390fd5b6001151560016002548154811061034f577f4e487b7100000000000000000000000000000000000000000000000000000000600052603260045260246000fd5b90600052602060002090600b0201600a0160019054906101000a900460ff161515146103b0576040517f08c379a00000000000000000000000000000000000000000000000000000000081526004016103a790612778565b60405180910390fd5b60008054906101000a900473ffffffffffffffffffffffffffffffffffffffff1673ffffffffffffffffffffffffffffffffffffffff1663b7b29441826040518263ffffffff1660e01b815260040161040991906126b0565b600060405180830381600087803b15801561042357600080fd5b505af1158015610437573d6000803e3d6000fd5b505050506000807f000000000000000000000000000000000000000000000000000000000000000073ffffffffffffffffffffffffffffffffffffffff16346001600254815481106104b2577f4e487b7100000000000000000000000000000000000000000000000000000000600052603260045260246000fd5b90600052602060002090600b020160040160009054906101000a900473ffffffffffffffffffffffffffffffffffffffff1660016040516024016104f7929190612635565b6040516020818303038152906040527fb6f21c26000000000000000000000000000000000000000000000000000000007bffffffffffffffffffffffffffffffffffffffffffffffffffffffff19166020820180517bffffffffffffffffffffffffffffffffffffffffffffffffffffffff83818316178352505050506040516105819190612603565b60006040518083038185875af1925050503d80600081146105be576040519150601f19603f3d011682016040523d82523d6000602084013e6105c3565b606091505b50915091507f211793e58f00b3e734d024ba6cd956e5c3371570ce2f36886f32d842cc67e23682826040516105f99291906126cb565b60405180910390a1505050565b600160025481548110610642577f4e487b7100000000000000000000000000000000000000000000000000000000600052603260045260246000fd5b90600052602060002090600b020160030154600160025481548110610690577f4e487b7100000000000000000000000000000000000000000000000000000000600052603260045260246000fd5b90600052602060002090600b020160050154106106e2576040517f08c379a00000000000000000000000000000000000000000000000000000000081526004016106d9906127d8565b60405180910390fd5b42600381905550610384600160025481548110610728577f4e487b7100000000000000000000000000000000000000000000000000000000600052603260045260246000fd5b90600052602060002090600b0201600901546107449190612955565b6003541115610788576040517f08c379a000000000000000000000000000000000000000000000000000000000815260040161077f906127f8565b60405180910390fd5b600115156001600254815481106107c8577f4e487b7100000000000000000000000000000000000000000000000000000000600052603260045260246000fd5b90600052602060002090600b0201600a0160009054906101000a900460ff16151514610829576040517f08c379a000000000000000000000000000000000000000000000000000000000815260040161082090612858565b60405180910390fd5b6000807f000000000000000000000000000000000000000000000000000000000000000073ffffffffffffffffffffffffffffffffffffffff16346001600254815481106108a0577f4e487b7100000000000000000000000000000000000000000000000000000000600052603260045260246000fd5b90600052602060002090600b020160040160009054906101000a900473ffffffffffffffffffffffffffffffffffffffff16856040516024016108e4929190612687565b6040516020818303038152906040527fb6f21c26000000000000000000000000000000000000000000000000000000007bffffffffffffffffffffffffffffffffffffffffffffffffffffffff19166020820180517bffffffffffffffffffffffffffffffffffffffffffffffffffffffff838183161783525050505060405161096e9190612603565b60006040518083038185875af1925050503d80600081146109ab576040519150601f19603f3d011682016040523d82523d6000602084013e6109b0565b606091505b50915091507f211793e58f00b3e734d024ba6cd956e5c3371570ce2f36886f32d842cc67e23682826040516109e69291906126cb565b60405180910390a182600160025481548110610a2b577f4e487b7100000000000000000000000000000000000000000000000000000000600052603260045260246000fd5b90600052602060002090600b02016005016000828254610a4b9190612955565b92505081905550505050565b60026000815480929190610a6a90612b2e565b9190505550600060405180610180016040528086815260200160025481526020018581526020018481526020018373ffffffffffffffffffffffffffffffffffffffff168152602001600081526020016000815260200160008152602001600081526020016000815260200160001515815260200160011515815250905060018190806001815401808255809150506001900390600052602060002090600b02016000909190919091506000820151816000019080519060200190610b30929190612152565b50602082015181600101556040820151816002019080519060200190610b57929190612152565b506060820151816003015560808201518160040160006101000a81548173ffffffffffffffffffffffffffffffffffffffff021916908373ffffffffffffffffffffffffffffffffffffffff16021790555060a0820151816005015560c0820151816006015560e082015181600701556101008201518160080155610120820151816009015561014082015181600a0160006101000a81548160ff02191690831515021790555061016082015181600a0160016101000a81548160ff021916908315150217905550505042600160025481548110610c5e577f4e487b7100000000000000000000000000000000000000000000000000000000600052603260045260246000fd5b90600052602060002090600b0201600801819055505050505050565b7f000000000000000000000000000000000000000000000000000000000000000081565b4260038190555060b4600160025481548110610ce3577f4e487b7100000000000000000000000000000000000000000000000000000000600052603260045260246000fd5b90600052602060002090600b020160080154610cff9190612955565b60035411610d42576040517f08c379a0000000000000000000000000000000000000000000000000000000008152600401610d3990612818565b60405180910390fd5b60008054906101000a900473ffffffffffffffffffffffffffffffffffffffff1673ffffffffffffffffffffffffffffffffffffffff1663f8448c686040518163ffffffff1660e01b815260040160206040518083038186803b158015610da857600080fd5b505afa158015610dbc573d6000803e3d6000fd5b505050506040513d601f19601f82011682018060405250810190610de091906123d4565b600160025481548110610e1c577f4e487b7100000000000000000000000000000000000000000000000000000000600052603260045260246000fd5b90600052602060002090600b02016007018190555060008054906101000a900473ffffffffffffffffffffffffffffffffffffffff1673ffffffffffffffffffffffffffffffffffffffff1663454c96686040518163ffffffff1660e01b815260040160206040518083038186803b158015610e9757600080fd5b505afa158015610eab573d6000803e3d6000fd5b505050506040513d601f19601f82011682018060405250810190610ecf91906123d4565b600160025481548110610f0b577f4e487b7100000000000000000000000000000000000000000000000000000000600052603260045260246000fd5b90600052602060002090600b020160060181905550600160025481548110610f5c577f4e487b7100000000000000000000000000000000000000000000000000000000600052603260045260246000fd5b90600052602060002090600b020160040160009054906101000a900473ffffffffffffffffffffffffffffffffffffffff1673ffffffffffffffffffffffffffffffffffffffff163373ffffffffffffffffffffffffffffffffffffffff1614610ffb576040517f08c379a0000000000000000000000000000000000000000000000000000000008152600401610ff290612838565b60405180910390fd5b6002600160025481548110611039577f4e487b7100000000000000000000000000000000000000000000000000000000600052603260045260246000fd5b90600052602060002090600b02016006015461105591906129ab565b600160025481548110611091577f4e487b7100000000000000000000000000000000000000000000000000000000600052603260045260246000fd5b90600052602060002090600b020160070154116111755760006001600254815481106110e6577f4e487b7100000000000000000000000000000000000000000000000000000000600052603260045260246000fd5b90600052602060002090600b0201600a0160016101000a81548160ff021916908315150217905550600060016002548154811061114c577f4e487b7100000000000000000000000000000000000000000000000000000000600052603260045260246000fd5b90600052602060002090600b0201600a0160006101000a81548160ff0219169083151502179055505b60005b60008054906101000a900473ffffffffffffffffffffffffffffffffffffffff1673ffffffffffffffffffffffffffffffffffffffff1663f8448c686040518163ffffffff1660e01b815260040160206040518083038186803b1580156111de57600080fd5b505afa1580156111f2573d6000803e3d6000fd5b505050506040513d601f19601f8201168201806040525081019061121691906123d4565b60008054906101000a900473ffffffffffffffffffffffffffffffffffffffff1673ffffffffffffffffffffffffffffffffffffffff1663454c96686040518163ffffffff1660e01b815260040160206040518083038186803b15801561127c57600080fd5b505afa158015611290573d6000803e3d6000fd5b505050506040513d601f19601f820116820180604052508101906112b491906123d4565b6112be91906129dc565b8110156114e25760008060009054906101000a900473ffffffffffffffffffffffffffffffffffffffff1673ffffffffffffffffffffffffffffffffffffffff16634abe4b7c836040518263ffffffff1660e01b81526004016113219190612878565b60206040518083038186803b15801561133957600080fd5b505afa15801561134d573d6000803e3d6000fd5b505050506040513d601f19601f8201168201806040525081019061137191906122c6565b90506000807f000000000000000000000000000000000000000000000000000000000000000073ffffffffffffffffffffffffffffffffffffffff16348460026040516024016113c292919061265e565b6040516020818303038152906040527fb6f21c26000000000000000000000000000000000000000000000000000000007bffffffffffffffffffffffffffffffffffffffffffffffffffffffff19166020820180517bffffffffffffffffffffffffffffffffffffffffffffffffffffffff838183161783525050505060405161144c9190612603565b60006040518083038185875af1925050503d8060008114611489576040519150601f19603f3d011682016040523d82523d6000602084013e61148e565b606091505b50915091507f211793e58f00b3e734d024ba6cd956e5c3371570ce2f36886f32d842cc67e23682826040516114c49291906126cb565b60405180910390a150505080806114da90612b2e565b915050611178565b50565b60608060008060008060006001888154811061152a577f4e487b7100000000000000000000000000000000000000000000000000000000600052603260045260246000fd5b90600052602060002090600b0201600001805461154690612acb565b80601f016020809104026020016040519081016040528092919081815260200182805461157290612acb565b80156115bf5780601f10611594576101008083540402835291602001916115bf565b820191906000526020600020905b8154815290600101906020018083116115a257829003601f168201915b5050505050965060018881548110611600577f4e487b7100000000000000000000000000000000000000000000000000000000600052603260045260246000fd5b90600052602060002090600b0201600201805461161c90612acb565b80601f016020809104026020016040519081016040528092919081815260200182805461164890612acb565b80156116955780601f1061166a57610100808354040283529160200191611695565b820191906000526020600020905b81548152906001019060200180831161167857829003601f168201915b50505050509550600188815481106116d6577f4e487b7100000000000000000000000000000000000000000000000000000000600052603260045260246000fd5b90600052602060002090600b020160030154945060018881548110611724577f4e487b7100000000000000000000000000000000000000000000000000000000600052603260045260246000fd5b90600052602060002090600b020160040160009054906101000a900473ffffffffffffffffffffffffffffffffffffffff169350600160025481548110611794577f4e487b7100000000000000000000000000000000000000000000000000000000600052603260045260246000fd5b90600052602060002090600b0201600501549250600188815481106117e2577f4e487b7100000000000000000000000000000000000000000000000000000000600052603260045260246000fd5b90600052602060002090600b0201600a0160009054906101000a900460ff1691506001888154811061183d577f4e487b7100000000000000000000000000000000000000000000000000000000600052603260045260246000fd5b90600052602060002090600b0201600a0160019054906101000a900460ff169050919395979092949650565b4260038190555060b46001600254815481106118ae577f4e487b7100000000000000000000000000000000000000000000000000000000600052603260045260246000fd5b90600052602060002090600b0201600801546118ca9190612955565b6003541161190d576040517f08c379a000000000000000000000000000000000000000000000000000000000815260040161190490612818565b60405180910390fd5b60008054906101000a900473ffffffffffffffffffffffffffffffffffffffff1673ffffffffffffffffffffffffffffffffffffffff1663f8448c686040518163ffffffff1660e01b815260040160206040518083038186803b15801561197357600080fd5b505afa158015611987573d6000803e3d6000fd5b505050506040513d601f19601f820116820180604052508101906119ab91906123d4565b6001600254815481106119e7577f4e487b7100000000000000000000000000000000000000000000000000000000600052603260045260246000fd5b90600052602060002090600b02016007018190555060008054906101000a900473ffffffffffffffffffffffffffffffffffffffff1673ffffffffffffffffffffffffffffffffffffffff1663454c96686040518163ffffffff1660e01b815260040160206040518083038186803b158015611a6257600080fd5b505afa158015611a76573d6000803e3d6000fd5b505050506040513d601f19601f82011682018060405250810190611a9a91906123d4565b600160025481548110611ad6577f4e487b7100000000000000000000000000000000000000000000000000000000600052603260045260246000fd5b90600052602060002090600b020160060181905550600160025481548110611b27577f4e487b7100000000000000000000000000000000000000000000000000000000600052603260045260246000fd5b90600052602060002090600b020160040160009054906101000a900473ffffffffffffffffffffffffffffffffffffffff1673ffffffffffffffffffffffffffffffffffffffff163373ffffffffffffffffffffffffffffffffffffffff1614611bc6576040517f08c379a0000000000000000000000000000000000000000000000000000000008152600401611bbd90612838565b60405180910390fd5b6002600160025481548110611c04577f4e487b7100000000000000000000000000000000000000000000000000000000600052603260045260246000fd5b90600052602060002090600b020160060154611c2091906129ab565b600160025481548110611c5c577f4e487b7100000000000000000000000000000000000000000000000000000000600052603260045260246000fd5b90600052602060002090600b02016007015410611d93576000600160025481548110611cb1577f4e487b7100000000000000000000000000000000000000000000000000000000600052603260045260246000fd5b90600052602060002090600b0201600a0160016101000a81548160ff02191690831515021790555060018060025481548110611d16577f4e487b7100000000000000000000000000000000000000000000000000000000600052603260045260246000fd5b90600052602060002090600b0201600a0160006101000a81548160ff021916908315150217905550600354600160025481548110611d7d577f4e487b7100000000000000000000000000000000000000000000000000000000600052603260045260246000fd5b90600052602060002090600b0201600901819055505b60005b600160025481548110611dd2577f4e487b7100000000000000000000000000000000000000000000000000000000600052603260045260246000fd5b90600052602060002090600b0201600701548110156120085760008060009054906101000a900473ffffffffffffffffffffffffffffffffffffffff1673ffffffffffffffffffffffffffffffffffffffff1663e9be5e66836040518263ffffffff1660e01b8152600401611e479190612878565b60206040518083038186803b158015611e5f57600080fd5b505afa158015611e73573d6000803e3d6000fd5b505050506040513d601f19601f82011682018060405250810190611e9791906122c6565b90506000807f000000000000000000000000000000000000000000000000000000000000000073ffffffffffffffffffffffffffffffffffffffff1634846002604051602401611ee892919061265e565b6040516020818303038152906040527fb6f21c26000000000000000000000000000000000000000000000000000000007bffffffffffffffffffffffffffffffffffffffffffffffffffffffff19166020820180517bffffffffffffffffffffffffffffffffffffffffffffffffffffffff8381831617835250505050604051611f729190612603565b60006040518083038185875af1925050503d8060008114611faf576040519150601f19603f3d011682016040523d82523d6000602084013e611fb4565b606091505b50915091507f211793e58f00b3e734d024ba6cd956e5c3371570ce2f36886f32d842cc67e2368282604051611fea9291906126cb565b60405180910390a1505050808061200090612b2e565b915050611d96565b50565b60008060008054906101000a900473ffffffffffffffffffffffffffffffffffffffff1673ffffffffffffffffffffffffffffffffffffffff1663f8448c686040518163ffffffff1660e01b815260040160206040518083038186803b15801561207457600080fd5b505afa158015612088573d6000803e3d6000fd5b505050506040513d601f19601f820116820180604052508101906120ac91906123d4565b905060008054906101000a900473ffffffffffffffffffffffffffffffffffffffff1673ffffffffffffffffffffffffffffffffffffffff1663454c96686040518163ffffffff1660e01b815260040160206040518083038186803b15801561211457600080fd5b505afa158015612128573d6000803e3d6000fd5b505050506040513d601f19601f8201168201806040525081019061214c91906123d4565b91509091565b82805461215e90612acb565b90600052602060002090601f01602090048101928261218057600085556121c7565b82601f1061219957805160ff19168380011785556121c7565b828001600101855582156121c7579182015b828111156121c65782518255916020019190600101906121ab565b5b5090506121d491906121d8565b5090565b5b808211156121f15760008160009055506001016121d9565b5090565b6000612208612203846128e1565b6128bc565b90508281526020810184848401111561222057600080fd5b61222b848285612a89565b509392505050565b60008135905061224281612dd8565b92915050565b60008151905061225781612dd8565b92915050565b60008135905061226c81612def565b92915050565b600082601f83011261228357600080fd5b81356122938482602086016121f5565b91505092915050565b6000813590506122ab81612e06565b92915050565b6000815190506122c081612e06565b92915050565b6000602082840312156122d857600080fd5b60006122e684828501612248565b91505092915050565b60006020828403121561230157600080fd5b600061230f8482850161225d565b91505092915050565b6000806000806080858703121561232e57600080fd5b600085013567ffffffffffffffff81111561234857600080fd5b61235487828801612272565b945050602085013567ffffffffffffffff81111561237157600080fd5b61237d87828801612272565b935050604061238e8782880161229c565b925050606061239f87828801612233565b91505092959194509250565b6000602082840312156123bd57600080fd5b60006123cb8482850161229c565b91505092915050565b6000602082840312156123e657600080fd5b60006123f4848285016122b1565b91505092915050565b61240681612a10565b82525050565b61241581612a22565b82525050565b600061242682612912565b6124308185612928565b9350612440818560208601612a98565b61244981612c33565b840191505092915050565b600061245f82612912565b6124698185612939565b9350612479818560208601612a98565b80840191505092915050565b61248e81612a65565b82525050565b61249d81612a77565b82525050565b60006124ae8261291d565b6124b88185612944565b93506124c8818560208601612a98565b6124d181612c33565b840191505092915050565b60006124e9601583612944565b91506124f482612c44565b602082019050919050565b600061250c601483612944565b915061251782612c6d565b602082019050919050565b600061252f602783612944565b915061253a82612c96565b604082019050919050565b6000612552602f83612944565b915061255d82612ce5565b604082019050919050565b6000612575601a83612944565b915061258082612d34565b602082019050919050565b6000612598601f83612944565b91506125a382612d5d565b602082019050919050565b60006125bb601683612944565b91506125c682612d86565b602082019050919050565b60006125de601e83612944565b91506125e982612daf565b602082019050919050565b6125fd81612a4e565b82525050565b600061260f8284612454565b915081905092915050565b600060208201905061262f60008301846123fd565b92915050565b600060408201905061264a60008301856123fd565b6126576020830184612485565b9392505050565b600060408201905061267360008301856123fd565b6126806020830184612494565b9392505050565b600060408201905061269c60008301856123fd565b6126a960208301846125f4565b9392505050565b60006020820190506126c5600083018461240c565b92915050565b60006040820190506126e0600083018561240c565b81810360208301526126f2818461241b565b90509392505050565b600060e0820190508181036000830152612715818a6124a3565b9050818103602083015261272981896124a3565b905061273860408301886125f4565b61274560608301876123fd565b61275260808301866125f4565b61275f60a083018561240c565b61276c60c083018461240c565b98975050505050505050565b60006020820190508181036000830152612791816124dc565b9050919050565b600060208201905081810360008301526127b1816124ff565b9050919050565b600060208201905081810360008301526127d181612522565b9050919050565b600060208201905081810360008301526127f181612545565b9050919050565b6000602082019050818103600083015261281181612568565b9050919050565b600060208201905081810360008301526128318161258b565b9050919050565b60006020820190508181036000830152612851816125ae565b9050919050565b60006020820190508181036000830152612871816125d1565b9050919050565b600060208201905061288d60008301846125f4565b92915050565b60006040820190506128a860008301856125f4565b6128b560208301846125f4565b9392505050565b60006128c66128d7565b90506128d28282612afd565b919050565b6000604051905090565b600067ffffffffffffffff8211156128fc576128fb612c04565b5b61290582612c33565b9050602081019050919050565b600081519050919050565b600081519050919050565b600082825260208201905092915050565b600081905092915050565b600082825260208201905092915050565b600061296082612a4e565b915061296b83612a4e565b9250827fffffffffffffffffffffffffffffffffffffffffffffffffffffffffffffffff038211156129a05761299f612b77565b5b828201905092915050565b60006129b682612a4e565b91506129c183612a4e565b9250826129d1576129d0612ba6565b5b828204905092915050565b60006129e782612a4e565b91506129f283612a4e565b925082821015612a0557612a04612b77565b5b828203905092915050565b6000612a1b82612a2e565b9050919050565b60008115159050919050565b600073ffffffffffffffffffffffffffffffffffffffff82169050919050565b6000819050919050565b600060ff82169050919050565b6000612a7082612a58565b9050919050565b6000612a8282612a58565b9050919050565b82818337600083830152505050565b60005b83811015612ab6578082015181840152602081019050612a9b565b83811115612ac5576000848401525b50505050565b60006002820490506001821680612ae357607f821691505b60208210811415612af757612af6612bd5565b5b50919050565b612b0682612c33565b810181811067ffffffffffffffff82111715612b2557612b24612c04565b5b80604052505050565b6000612b3982612a4e565b91507fffffffffffffffffffffffffffffffffffffffffffffffffffffffffffffffff821415612b6c57612b6b612b77565b5b600182019050919050565b7f4e487b7100000000000000000000000000000000000000000000000000000000600052601160045260246000fd5b7f4e487b7100000000000000000000000000000000000000000000000000000000600052601260045260246000fd5b7f4e487b7100000000000000000000000000000000000000000000000000000000600052602260045260246000fd5b7f4e487b7100000000000000000000000000000000000000000000000000000000600052604160045260246000fd5b6000601f19601f8301169050919050565b7f566f74696e67207068617365206973206f7665722e0000000000000000000000600082015250565b7f566f74696e67207068617365206973206f766572000000000000000000000000600082015250565b7f596f752063616e206e6f7420766f746520666f7220796f7572206f776e20636160008201527f6d706169676e2e00000000000000000000000000000000000000000000000000602082015250565b7f576527766520676174686572656420656e6f7567682e205468616e6b20796f7560008201527f20666f7220796f75722068656c702e0000000000000000000000000000000000602082015250565b7f54696d6520666f7220646f6e6174696e67206973206f7665722e000000000000600082015250565b7f54686520766f7465207068617365206973206e6f74206f766572207965742e00600082015250565b7f596f7520617265206e6f7420616c6c6f77656421212100000000000000000000600082015250565b7f546869732063616d706169676e206973206e6f7420617661696c616265640000600082015250565b612de181612a10565b8114612dec57600080fd5b50565b612df881612a22565b8114612e0357600080fd5b50565b612e0f81612a4e565b8114612e1a57600080fd5b5056fea26469706673582212202fbfd52334cbb824df8467d11dd96ae9a8038b40bf81e417005d4e0c6952b79464736f6c63430008010033608060405234801561001057600080fd5b506000808190555060006001819055506109f98061002f6000396000f3fe608060405234801561001057600080fd5b506004361061009e5760003560e01c8063b94696c911610066578063b94696c914610149578063d5bd6cd914610179578063e881183a14610197578063e9be5e66146101c7578063f8448c68146101f75761009e565b80633bd64ddb146100a3578063454c9668146100c15780634abe4b7c146100df5780637b5bc2e41461010f578063b7b294411461012d575b600080fd5b6100ab610215565b6040516100b891906107f6565b60405180910390f35b6100c961021b565b6040516100d691906107f6565b60405180910390f35b6100f960048036038101906100f49190610727565b610224565b60405161010691906107a0565b60405180910390f35b610117610292565b60405161012491906107bb565b60405180910390f35b610147600480360381019061014291906106fe565b6102a5565b005b610163600480360381019061015e9190610727565b6105d8565b60405161017091906107a0565b60405180910390f35b610181610617565b60405161018e91906107f6565b60405180910390f35b6101b160048036038101906101ac9190610727565b61061d565b6040516101be91906107a0565b60405180910390f35b6101e160048036038101906101dc9190610727565b61065c565b6040516101ee91906107a0565b60405180910390f35b6101ff6106ca565b60405161020c91906107f6565b60405180910390f35b60005481565b60008054905090565b600060038281548110610260577f4e487b7100000000000000000000000000000000000000000000000000000000600052603260045260246000fd5b9060005260206000200160009054906101000a900473ffffffffffffffffffffffffffffffffffffffff169050919050565b600460009054906101000a900460ff1681565b600033905060005b60015481101561037e57600281815481106102f1577f4e487b7100000000000000000000000000000000000000000000000000000000600052603260045260246000fd5b9060005260206000200160009054906101000a900473ffffffffffffffffffffffffffffffffffffffff1673ffffffffffffffffffffffffffffffffffffffff168273ffffffffffffffffffffffffffffffffffffffff16141561036b576001600460006101000a81548160ff0219169083151502179055505b8080610376906108f4565b9150506102ad565b5060005b6001546000546103929190610878565b81101561046057600381815481106103d3577f4e487b7100000000000000000000000000000000000000000000000000000000600052603260045260246000fd5b9060005260206000200160009054906101000a900473ffffffffffffffffffffffffffffffffffffffff1673ffffffffffffffffffffffffffffffffffffffff168273ffffffffffffffffffffffffffffffffffffffff16141561044d576001600460006101000a81548160ff0219169083151502179055505b8080610458906108f4565b915050610382565b5060001515600460009054906101000a900460ff161515146104b7576040517f08c379a00000000000000000000000000000000000000000000000000000000081526004016104ae906107d6565b60405180910390fd5b81156105575760016000808282546104cf9190610822565b9250508190555060018060008282546104e89190610822565b925050819055506002819080600181540180825580915050600190039060005260206000200160009091909190916101000a81548173ffffffffffffffffffffffffffffffffffffffff021916908373ffffffffffffffffffffffffffffffffffffffff1602179055506105d4565b60016000808282546105699190610822565b925050819055506003819080600181540180825580915050600190039060005260206000200160009091909190916101000a81548173ffffffffffffffffffffffffffffffffffffffff021916908373ffffffffffffffffffffffffffffffffffffffff1602179055505b5050565b600281815481106105e857600080fd5b906000526020600020016000915054906101000a900473ffffffffffffffffffffffffffffffffffffffff1681565b60015481565b6003818154811061062d57600080fd5b906000526020600020016000915054906101000a900473ffffffffffffffffffffffffffffffffffffffff1681565b600060028281548110610698577f4e487b7100000000000000000000000000000000000000000000000000000000600052603260045260246000fd5b9060005260206000200160009054906101000a900473ffffffffffffffffffffffffffffffffffffffff169050919050565b6000600154905090565b6000813590506106e381610995565b92915050565b6000813590506106f8816109ac565b92915050565b60006020828403121561071057600080fd5b600061071e848285016106d4565b91505092915050565b60006020828403121561073957600080fd5b6000610747848285016106e9565b91505092915050565b610759816108ac565b82525050565b610768816108be565b82525050565b600061077b601783610811565b91506107868261096c565b602082019050919050565b61079a816108ea565b82525050565b60006020820190506107b56000830184610750565b92915050565b60006020820190506107d0600083018461075f565b92915050565b600060208201905081810360008301526107ef8161076e565b9050919050565b600060208201905061080b6000830184610791565b92915050565b600082825260208201905092915050565b600061082d826108ea565b9150610838836108ea565b9250827fffffffffffffffffffffffffffffffffffffffffffffffffffffffffffffffff0382111561086d5761086c61093d565b5b828201905092915050565b6000610883826108ea565b915061088e836108ea565b9250828210156108a1576108a061093d565b5b828203905092915050565b60006108b7826108ca565b9050919050565b60008115159050919050565b600073ffffffffffffffffffffffffffffffffffffffff82169050919050565b6000819050919050565b60006108ff826108ea565b91507fffffffffffffffffffffffffffffffffffffffffffffffffffffffffffffffff8214156109325761093161093d565b5b600182019050919050565b7f4e487b7100000000000000000000000000000000000000000000000000000000600052601160045260246000fd5b7f596f75206861766520616c726561647920766f7465642e000000000000000000600082015250565b61099e816108be565b81146109a957600080fd5b50565b6109b5816108ea565b81146109c057600080fd5b5056fea2646970667358221220ab2456ed8576cdaa20d6110506a4251c5dd396b5f5cfdb654d64f136afa8c6ff64736f6c63430008010033",
  "immutableReferences": {
    "29": [
      {
        "length": 32,
        "start": 1088
      },
      {
        "length": 32,
        "start": 2094
      },
      {
        "length": 32,
        "start": 3196
      },
      {
        "length": 32,
        "start": 4984
      },
      {
        "length": 32,
        "start": 7838
      }
    ]
  },
  "source": "// SPDX-License-Identifier: MIT\r\npragma solidity ^0.8.1;\r\n\r\nimport \"./Voting.sol\";\r\n\r\n//import \"./Token.sol\";\r\n\r\ncontract Charity{\r\n    //Token trans = new Token();\r\n    struct Campaign{\r\n        string name;\r\n        uint Campaignid;\r\n        string details;\r\n        uint256 goal;\r\n        address ownerID;\r\n        uint fund;\r\n        uint NumberofVotes;\r\n        uint NumberofAcceptVote;\r\n        uint time_to_start_voting;\r\n        uint time_to_start_donating;\r\n        bool isOpened;\r\n        bool isVoting;\r\n    }\r\n    \r\n    address public immutable transfer_address;\r\n\r\n    /*function set_address(address _address) external {\r\n        transfer_address = _address;\r\n    }*/\r\n    \r\n    event Transfered(bool success, bytes data);\r\n\r\n    constructor(address tf_address)\r\n    {\r\n       transfer_address = tf_address;\r\n       campaign.push(Campaign(\"0\",0,\"0\",0,0x0000000000000000000000000000000000000000,0,0,0,0,0,false,false)); \r\n    }\r\n\r\n    Voting voting = new Voting();\r\n    Campaign[] campaign;\r\n    uint CampaignId = 0;\r\n    uint current_time;\r\n    \r\n    function CreateCampaign(string memory _name, string memory _details, uint _goal, address _ownerID) public\r\n    {\r\n        CampaignId++;\r\n        Campaign memory tempcpg = Campaign(_name,CampaignId,_details,_goal,_ownerID,0,0,0,0,0,false,true);\r\n        campaign.push(tempcpg);\r\n        campaign[CampaignId].time_to_start_voting = block.timestamp;\r\n    }\r\n    \r\n    function get_Campaign_Info(uint _campaignid) public view\r\n        returns(string memory name,\r\n                string memory details,\r\n                uint256 goal,\r\n                address owner,\r\n                uint fund,\r\n                bool isopened,\r\n                bool isvoting\r\n    ) {\r\n        name = campaign[_campaignid].name;\r\n        details = campaign[_campaignid].details;\r\n        goal = campaign[_campaignid].goal;\r\n        owner = campaign[_campaignid].ownerID;\r\n        fund = campaign[CampaignId].fund;\r\n        isopened = campaign[_campaignid].isOpened;\r\n        isvoting = campaign[_campaignid].isVoting;    \r\n    }\r\n    \r\n    function Votings(bool _vote) external payable {\r\n        current_time = block.timestamp;\r\n        require(current_time < campaign[CampaignId].time_to_start_voting + 3 minutes, \"Voting phase is over\");\r\n        require(msg.sender != campaign[CampaignId].ownerID, \"You can not vote for your own campaign.\");\r\n        require(campaign[CampaignId].isVoting == true, \"Voting phase is over.\");\r\n        voting.vote_campaign(_vote);\r\n        (bool success, bytes memory data) = transfer_address.call{value: msg.value}(\r\n                abi.encodeWithSignature(\"transfer(string, uint256)\", campaign[CampaignId].ownerID, 1));\r\n                emit Transfered(success, data);\r\n    }    \r\n    \r\n    function ActivateCampaign() external payable\r\n    {   current_time = block.timestamp;\r\n        require(current_time > campaign[CampaignId].time_to_start_voting + 3 minutes, \"The vote phase is not over yet.\");\r\n        campaign[CampaignId].NumberofAcceptVote = voting.get_accept_vote();\r\n        campaign[CampaignId].NumberofVotes = voting.get_total_vote();\r\n        require(msg.sender == campaign[CampaignId].ownerID, \"You are not allowed!!!\");\r\n        if(campaign[CampaignId].NumberofAcceptVote >= campaign[CampaignId].NumberofVotes/2)\r\n        {\r\n            campaign[CampaignId].isVoting = false;\r\n            campaign[CampaignId].isOpened = true;\r\n            campaign[CampaignId].time_to_start_donating = current_time;\r\n        }\r\n\r\n        for (uint i=0; i<campaign[CampaignId].NumberofAcceptVote; i++) \r\n        {\r\n            address temp = voting.get_accept_account(i);\r\n            (bool success, bytes memory data) = transfer_address.call{value: msg.value}(\r\n                abi.encodeWithSignature(\"transfer(string, uint256)\", temp, 2));\r\n                emit Transfered(success, data);\r\n        }\r\n\r\n    }\r\n    \r\n    function DeactivateCampaign() external payable\r\n    {\r\n        current_time = block.timestamp;\r\n        require(current_time > campaign[CampaignId].time_to_start_voting + 3 minutes, \"The vote phase is not over yet.\");\r\n        campaign[CampaignId].NumberofAcceptVote = voting.get_accept_vote();\r\n        campaign[CampaignId].NumberofVotes = voting.get_total_vote();\r\n        require(msg.sender == campaign[CampaignId].ownerID, \"You are not allowed!!!\"); \r\n        if(campaign[CampaignId].NumberofAcceptVote <= campaign[CampaignId].NumberofVotes / 2)\r\n        {\r\n            campaign[CampaignId].isVoting = false;\r\n            campaign[CampaignId].isOpened = false;\r\n        }\r\n        for (uint i=0; i<voting.get_total_vote()-voting.get_accept_vote(); i++)\r\n        {\r\n            address temp = voting.get_decline_account(i);\r\n            (bool success, bytes memory data) = transfer_address.call{value: msg.value}(\r\n                abi.encodeWithSignature(\"transfer(string, uint256)\", temp, 2));\r\n                emit Transfered(success, data);\r\n        }\r\n    }\r\n    \r\n    function Donate(uint256 _amount) external payable {\r\n        require(campaign[CampaignId].fund < campaign[CampaignId].goal, \"We've gathered enough. Thank you for your help.\");\r\n        current_time = block.timestamp;\r\n        require(current_time<=campaign[CampaignId].time_to_start_donating + 15 minutes, \"Time for donating is over.\");\r\n        require(campaign[CampaignId].isOpened == true, \"This campaign is not availabed\");\r\n        (bool success, bytes memory data) = transfer_address.call{value: msg.value}(\r\n                abi.encodeWithSignature(\"transfer(string, uint256)\", campaign[CampaignId].ownerID, _amount));\r\n                emit Transfered(success, data);\r\n        campaign[CampaignId].fund += _amount;\r\n    }\r\n    \r\n    function get_vote_info() public view \r\n        returns(uint number_of_votes,\r\n                uint number_of_accept_votes\r\n        )\r\n    {\r\n        number_of_accept_votes = voting.get_accept_vote();\r\n        number_of_votes = voting.get_total_vote();\r\n    }\r\n}    \r\n",
  "sourcePath": "C:\\blockchain\\contracts\\Charity.sol",
  "compiler": {
    "name": "solc",
    "version": "0.8.1+commit.df193b15.Emscripten.clang"
  },
  "schemaVersion": "3.4.7",
  "updatedAt": "2022-05-03T14:54:47.752Z",
  "networkType": "ethereum",
  "devdoc": {
    "kind": "dev",
    "methods": {},
    "version": 1
  },
  "userdoc": {
    "kind": "user",
    "methods": {},
    "version": 1
  }
}