{
  "contractName": "Staking",
  "abi": [
    {
      "inputs": [
        {
          "internalType": "address",
          "name": "ft_contract",
          "type": "address"
        }
      ],
      "stateMutability": "nonpayable",
      "type": "constructor"
    },
    {
      "anonymous": false,
      "inputs": [],
      "name": "Harvested",
      "type": "event"
    },
    {
      "anonymous": false,
      "inputs": [],
      "name": "LogNeedToUnstake",
      "type": "event"
    },
    {
      "anonymous": false,
      "inputs": [
        {
          "indexed": false,
          "internalType": "uint256",
          "name": "amount",
          "type": "uint256"
        }
      ],
      "name": "Staked",
      "type": "event"
    },
    {
      "anonymous": false,
      "inputs": [
        {
          "indexed": false,
          "internalType": "bool",
          "name": "success",
          "type": "bool"
        },
        {
          "indexed": false,
          "internalType": "bytes",
          "name": "data",
          "type": "bytes"
        }
      ],
      "name": "Tranfered",
      "type": "event"
    },
    {
      "anonymous": false,
      "inputs": [],
      "name": "Unstaked",
      "type": "event"
    },
    {
      "anonymous": false,
      "inputs": [],
      "name": "Withdrawed",
      "type": "event"
    },
    {
      "inputs": [],
      "name": "_ft_contract",
      "outputs": [
        {
          "internalType": "address",
          "name": "",
          "type": "address"
        }
      ],
      "stateMutability": "view",
      "type": "function",
      "constant": true
    },
    {
      "inputs": [],
      "name": "_owner",
      "outputs": [
        {
          "internalType": "address",
          "name": "",
          "type": "address"
        }
      ],
      "stateMutability": "view",
      "type": "function",
      "constant": true
    },
    {
      "inputs": [],
      "name": "_total_paid_reward_balance",
      "outputs": [
        {
          "internalType": "uint256",
          "name": "",
          "type": "uint256"
        }
      ],
      "stateMutability": "view",
      "type": "function",
      "constant": true
    },
    {
      "inputs": [],
      "name": "_total_stake_balance",
      "outputs": [
        {
          "internalType": "uint256",
          "name": "",
          "type": "uint256"
        }
      ],
      "stateMutability": "view",
      "type": "function",
      "constant": true
    },
    {
      "inputs": [],
      "name": "_total_staker",
      "outputs": [
        {
          "internalType": "uint256",
          "name": "",
          "type": "uint256"
        }
      ],
      "stateMutability": "view",
      "type": "function",
      "constant": true
    },
    {
      "inputs": [],
      "name": "get_total_stake_balance",
      "outputs": [
        {
          "internalType": "uint256",
          "name": "",
          "type": "uint256"
        }
      ],
      "stateMutability": "view",
      "type": "function",
      "constant": true
    },
    {
      "inputs": [],
      "name": "get_total_paid_reward_balance",
      "outputs": [
        {
          "internalType": "uint256",
          "name": "",
          "type": "uint256"
        }
      ],
      "stateMutability": "view",
      "type": "function",
      "constant": true
    },
    {
      "inputs": [],
      "name": "get_total_staker",
      "outputs": [
        {
          "internalType": "uint256",
          "name": "",
          "type": "uint256"
        }
      ],
      "stateMutability": "view",
      "type": "function",
      "constant": true
    },
    {
      "inputs": [
        {
          "internalType": "address",
          "name": "account",
          "type": "address"
        }
      ],
      "name": "get_account_info",
      "outputs": [
        {
          "internalType": "uint256",
          "name": "balance",
          "type": "uint256"
        },
        {
          "internalType": "uint256",
          "name": "stake_start_time",
          "type": "uint256"
        },
        {
          "internalType": "uint256",
          "name": "unstake_start_time",
          "type": "uint256"
        },
        {
          "internalType": "uint256",
          "name": "unstake_available_block",
          "type": "uint256"
        }
      ],
      "stateMutability": "view",
      "type": "function",
      "constant": true
    },
    {
      "inputs": [
        {
          "internalType": "uint256",
          "name": "amount",
          "type": "uint256"
        }
      ],
      "name": "deposit_and_stake",
      "outputs": [],
      "stateMutability": "payable",
      "type": "function",
      "payable": true
    },
    {
      "inputs": [],
      "name": "unstake",
      "outputs": [],
      "stateMutability": "nonpayable",
      "type": "function"
    },
    {
      "inputs": [],
      "name": "harvest",
      "outputs": [],
      "stateMutability": "payable",
      "type": "function",
      "payable": true
    },
    {
      "inputs": [],
      "name": "withdraw",
      "outputs": [],
      "stateMutability": "payable",
      "type": "function",
      "payable": true
    }
  ],
  "bytecode": "0x60c06040523480156200001157600080fd5b506040516200164a3803806200164a8339818101604052810190620000379190620000da565b3373ffffffffffffffffffffffffffffffffffffffff1660808173ffffffffffffffffffffffffffffffffffffffff1660601b815250508073ffffffffffffffffffffffffffffffffffffffff1660a08173ffffffffffffffffffffffffffffffffffffffff1660601b8152505060008081905550600060018190555060006002819055505062000154565b600081519050620000d4816200013a565b92915050565b600060208284031215620000ed57600080fd5b6000620000fd84828501620000c3565b91505092915050565b600062000113826200011a565b9050919050565b600073ffffffffffffffffffffffffffffffffffffffff82169050919050565b620001458162000106565b81146200015157600080fd5b50565b60805160601c60a05160601c6114a0620001aa600039600081816103970152818161078d01528181610b630152610ee80152600081816103d3015281816107c901528181610b9f0152610eba01526114a06000f3fe6080604052600436106100c25760003560e01c80638e2631951161007f578063b2bdfa7b11610059578063b2bdfa7b146101fa578063ccec7eac14610225578063deda58ea14610250578063ee4c23301461027b576100c2565b80638e263195146101885780639b378fda146101b3578063a51fb121146101de576100c2565b80631bf636da146100c7578063245d8a7d146100f25780632def66201461011d5780633ccfd60b146101345780634641257d1461013e578063789cbb9e14610148575b600080fd5b3480156100d357600080fd5b506100dc6102a6565b6040516100e991906111b6565b60405180910390f35b3480156100fe57600080fd5b506101076102ac565b60405161011491906111b6565b60405180910390f35b34801561012957600080fd5b506101326102b2565b005b61013c610380565b005b610146610776565b005b34801561015457600080fd5b5061016f600480360381019061016a919061100b565b610a29565b60405161017f94939291906111d1565b60405180910390f35b34801561019457600080fd5b5061019d610b4a565b6040516101aa91906111b6565b60405180910390f35b3480156101bf57600080fd5b506101c8610b53565b6040516101d591906111b6565b60405180910390f35b6101f860048036038101906101f39190611034565b610b59565b005b34801561020657600080fd5b5061020f610eb8565b60405161021c919061110b565b60405180910390f35b34801561023157600080fd5b5061023a610edc565b60405161024791906111b6565b60405180910390f35b34801561025c57600080fd5b50610265610ee6565b604051610272919061110b565b60405180910390f35b34801561028757600080fd5b50610290610f0a565b60405161029d91906111b6565b60405180910390f35b60025481565b60015481565b600033905043600360008373ffffffffffffffffffffffffffffffffffffffff1673ffffffffffffffffffffffffffffffffffffffff16815260200190815260200160002060020181905550600a4361030b919061123d565b600360008373ffffffffffffffffffffffffffffffffffffffff1673ffffffffffffffffffffffffffffffffffffffff168152602001908152602001600020600301819055507f223cba103b37553fa55d92837815b881061ed40ebf54193471d8edb521b95df560405160405180910390a150565b6000339050600061039082610f14565b90506000807f000000000000000000000000000000000000000000000000000000000000000073ffffffffffffffffffffffffffffffffffffffff1634611388907f000000000000000000000000000000000000000000000000000000000000000087600360008a73ffffffffffffffffffffffffffffffffffffffff1673ffffffffffffffffffffffffffffffffffffffff1681526020019081526020016000206000015488610441919061123d565b60405160240161045393929190611126565b6040516020818303038152906040527f9344b63a000000000000000000000000000000000000000000000000000000007bffffffffffffffffffffffffffffffffffffffffffffffffffffffff19166020820180517bffffffffffffffffffffffffffffffffffffffffffffffffffffffff83818316178352505050506040516104dd91906110f4565b600060405180830381858888f193505050503d806000811461051b576040519150601f19603f3d011682016040523d82523d6000602084013e610520565b606091505b50915091507f9dd9c262129d8436c24cb8dc4bc7c2c3fba41c9a0f2716d61a8fb1704afc1b128282604051610556929190611186565b60405180910390a16000600360008673ffffffffffffffffffffffffffffffffffffffff1673ffffffffffffffffffffffffffffffffffffffff168152602001908152602001600020604051806080016040529081600082015481526020016001820154815260200160028201548152602001600382015481525050905083600160008282546105e6919061123d565b925050819055508060000151600080828254610602919061131e565b9250508190555060016002600082825461061c919061131e565b925050819055506000600360008773ffffffffffffffffffffffffffffffffffffffff1673ffffffffffffffffffffffffffffffffffffffff168152602001908152602001600020600001819055506000600360008773ffffffffffffffffffffffffffffffffffffffff1673ffffffffffffffffffffffffffffffffffffffff168152602001908152602001600020600101819055506000600360008773ffffffffffffffffffffffffffffffffffffffff1673ffffffffffffffffffffffffffffffffffffffff168152602001908152602001600020600201819055506000600360008773ffffffffffffffffffffffffffffffffffffffff1673ffffffffffffffffffffffffffffffffffffffff168152602001908152602001600020600301819055507f1f8de402f5572faa5e496296dbe794e30636a7eab42748738c7cf85de6d2b9a960405160405180910390a15050505050565b6000339050600061078682610f14565b90506000807f000000000000000000000000000000000000000000000000000000000000000073ffffffffffffffffffffffffffffffffffffffff1634611388907f000000000000000000000000000000000000000000000000000000000000000087876040516024016107fc93929190611126565b6040516020818303038152906040527f9344b63a000000000000000000000000000000000000000000000000000000007bffffffffffffffffffffffffffffffffffffffffffffffffffffffff19166020820180517bffffffffffffffffffffffffffffffffffffffffffffffffffffffff838183161783525050505060405161088691906110f4565b600060405180830381858888f193505050503d80600081146108c4576040519150601f19603f3d011682016040523d82523d6000602084013e6108c9565b606091505b50915091507f9dd9c262129d8436c24cb8dc4bc7c2c3fba41c9a0f2716d61a8fb1704afc1b1282826040516108ff929190611186565b60405180910390a18260016000828254610919919061123d565b9250508190555043600360008673ffffffffffffffffffffffffffffffffffffffff1673ffffffffffffffffffffffffffffffffffffffff168152602001908152602001600020600101819055506000600360008673ffffffffffffffffffffffffffffffffffffffff1673ffffffffffffffffffffffffffffffffffffffff168152602001908152602001600020600201819055506000600360008673ffffffffffffffffffffffffffffffffffffffff1673ffffffffffffffffffffffffffffffffffffffff168152602001908152602001600020600301819055507f4d12401e4d6cc642454aedd27a02290e422f28dd21e629634f1beffacb705bf860405160405180910390a150505050565b600080600080600360008673ffffffffffffffffffffffffffffffffffffffff1673ffffffffffffffffffffffffffffffffffffffff168152602001908152602001600020600001549350600360008673ffffffffffffffffffffffffffffffffffffffff1673ffffffffffffffffffffffffffffffffffffffff168152602001908152602001600020600101549250600360008673ffffffffffffffffffffffffffffffffffffffff1673ffffffffffffffffffffffffffffffffffffffff168152602001908152602001600020600201549150600360008673ffffffffffffffffffffffffffffffffffffffff1673ffffffffffffffffffffffffffffffffffffffff1681526020019081526020016000206003015490509193509193565b60008054905090565b60005481565b60003390506000807f000000000000000000000000000000000000000000000000000000000000000073ffffffffffffffffffffffffffffffffffffffff1634611388907f000000000000000000000000000000000000000000000000000000000000000087604051602401610bd092919061115d565b6040516020818303038152906040527f12cb70c7000000000000000000000000000000000000000000000000000000007bffffffffffffffffffffffffffffffffffffffffffffffffffffffff19166020820180517bffffffffffffffffffffffffffffffffffffffffffffffffffffffff8381831617835250505050604051610c5a91906110f4565b600060405180830381858888f193505050503d8060008114610c98576040519150601f19603f3d011682016040523d82523d6000602084013e610c9d565b606091505b50915091507f9dd9c262129d8436c24cb8dc4bc7c2c3fba41c9a0f2716d61a8fb1704afc1b128282604051610cd3929190611186565b60405180910390a16000600360008573ffffffffffffffffffffffffffffffffffffffff1673ffffffffffffffffffffffffffffffffffffffff16815260200190815260200160002060405180608001604052908160008201548152602001600182015481526020016002820154815260200160038201548152505090506000816000015114610d8e577f3940e255ab6ef79395bb1abb50522aa6dad9e3f914b92301bb228405ea594e7160405160405180910390a1610eb1565b8481600001818151610da0919061123d565b91508181525050438160200181815250508060000151600360008673ffffffffffffffffffffffffffffffffffffffff1673ffffffffffffffffffffffffffffffffffffffff168152602001908152602001600020600001819055508060200151600360008673ffffffffffffffffffffffffffffffffffffffff1673ffffffffffffffffffffffffffffffffffffffff1681526020019081526020016000206001018190555084600080828254610e58919061123d565b92505081905550600160026000828254610e72919061123d565b925050819055507feebbaa86c348cb664e392b180fd0ff2e1998af9fa833ef69a778cb0b42d3ca2785604051610ea891906111b6565b60405180910390a15b5050505050565b7f000000000000000000000000000000000000000000000000000000000000000081565b6000600254905090565b7f000000000000000000000000000000000000000000000000000000000000000081565b6000600154905090565b600080600360008473ffffffffffffffffffffffffffffffffffffffff1673ffffffffffffffffffffffffffffffffffffffff1681526020019081526020016000206040518060800160405290816000820154815260200160018201548152602001600282015481526020016003820154815250509050600064174876e80060036102cb846020015143610fa8919061131e565b8560000151610fb791906112c4565b610fc191906112c4565b610fcb91906112c4565b610fd59190611293565b90508092505050919050565b600081359050610ff08161143c565b92915050565b60008135905061100581611453565b92915050565b60006020828403121561101d57600080fd5b600061102b84828501610fe1565b91505092915050565b60006020828403121561104657600080fd5b600061105484828501610ff6565b91505092915050565b61106681611352565b82525050565b61107581611364565b82525050565b600061108682611216565b6110908185611221565b93506110a081856020860161139a565b6110a98161142b565b840191505092915050565b60006110bf82611216565b6110c98185611232565b93506110d981856020860161139a565b80840191505092915050565b6110ee81611390565b82525050565b600061110082846110b4565b915081905092915050565b6000602082019050611120600083018461105d565b92915050565b600060608201905061113b600083018661105d565b611148602083018561105d565b61115560408301846110e5565b949350505050565b6000604082019050611172600083018561105d565b61117f60208301846110e5565b9392505050565b600060408201905061119b600083018561106c565b81810360208301526111ad818461107b565b90509392505050565b60006020820190506111cb60008301846110e5565b92915050565b60006080820190506111e660008301876110e5565b6111f360208301866110e5565b61120060408301856110e5565b61120d60608301846110e5565b95945050505050565b600081519050919050565b600082825260208201905092915050565b600081905092915050565b600061124882611390565b915061125383611390565b9250827fffffffffffffffffffffffffffffffffffffffffffffffffffffffffffffffff03821115611288576112876113cd565b5b828201905092915050565b600061129e82611390565b91506112a983611390565b9250826112b9576112b86113fc565b5b828204905092915050565b60006112cf82611390565b91506112da83611390565b9250817fffffffffffffffffffffffffffffffffffffffffffffffffffffffffffffffff0483118215151615611313576113126113cd565b5b828202905092915050565b600061132982611390565b915061133483611390565b925082821015611347576113466113cd565b5b828203905092915050565b600061135d82611370565b9050919050565b60008115159050919050565b600073ffffffffffffffffffffffffffffffffffffffff82169050919050565b6000819050919050565b60005b838110156113b857808201518184015260208101905061139d565b838111156113c7576000848401525b50505050565b7f4e487b7100000000000000000000000000000000000000000000000000000000600052601160045260246000fd5b7f4e487b7100000000000000000000000000000000000000000000000000000000600052601260045260246000fd5b6000601f19601f8301169050919050565b61144581611352565b811461145057600080fd5b50565b61145c81611390565b811461146757600080fd5b5056fea2646970667358221220726baa4642ca57840179b3a47b402a8a9a94cfb302d2c34e4b9d7935a534b75a64736f6c63430008010033",
  "immutableReferences": {
    "659": [
      {
        "length": 32,
        "start": 979
      },
      {
        "length": 32,
        "start": 1993
      },
      {
        "length": 32,
        "start": 2975
      },
      {
        "length": 32,
        "start": 3770
      }
    ],
    "661": [
      {
        "length": 32,
        "start": 919
      },
      {
        "length": 32,
        "start": 1933
      },
      {
        "length": 32,
        "start": 2915
      },
      {
        "length": 32,
        "start": 3816
      }
    ]
  },
  "source": "// SPDX-License-Identifier: GPL-3.0\r\n\r\npragma solidity ^0.8.1;\r\n\r\n\r\n\r\ncontract Staking{\r\n    address public immutable  _owner;\r\n    address public immutable  _ft_contract;\r\n    uint public _total_stake_balance;\r\n    uint public _total_paid_reward_balance;\r\n    uint public _total_staker;\r\n    \r\n    struct AccountInfo{\r\n        uint account_balance;\r\n        uint stake_start_time;\r\n        uint unstake_start_time;\r\n        uint unstake_available_block;\r\n    }\r\n\r\n    mapping(address => AccountInfo) accounts_info;\r\n    \r\n    address[] accounts_address;\r\n\r\n    event LogNeedToUnstake();\r\n    event Staked(uint amount);\r\n    event Unstaked();\r\n    event Harvested();\r\n    event Withdrawed();\r\n    event Tranfered(bool success,bytes data);\r\n\r\n    constructor(address ft_contract){\r\n        _owner = msg.sender;\r\n        _ft_contract = ft_contract;\r\n        _total_stake_balance = 0;\r\n        _total_paid_reward_balance = 0;\r\n        _total_staker = 0; \r\n    }\r\n\r\n    function get_total_stake_balance() public view returns(uint) {return _total_stake_balance;}\r\n    function get_total_paid_reward_balance() public view returns(uint) {return _total_paid_reward_balance;}\r\n    function get_total_staker() public view returns(uint) {return _total_staker;}\r\n\r\n    function get_account_info(address account) public view \r\n        returns(uint balance,\r\n                uint stake_start_time, \r\n                uint unstake_start_time, \r\n                uint unstake_available_block ){\r\n        balance = accounts_info[account].account_balance;\r\n        stake_start_time = accounts_info[account].stake_start_time;\r\n        unstake_start_time = accounts_info[account].unstake_start_time;\r\n        unstake_available_block = accounts_info[account].unstake_available_block;\r\n    }\r\n\r\n    function register_account(address account) internal{\r\n        accounts_address.push(account);\r\n        accounts_info[account].account_balance = 0;\r\n        accounts_info[account].stake_start_time = 0;\r\n        accounts_info[account].unstake_start_time = 0;\r\n        accounts_info[account].unstake_available_block = 0;\r\n    }\r\n\r\n    function deposit_and_stake(uint amount) public payable{\r\n        address account = msg.sender;\r\n        (bool success, bytes memory data) = _ft_contract.call{value: msg.value, gas: 5000}(\r\n        \tabi.encodeWithSignature(\"transfer(string,uint256)\",_owner,amount )\r\n        );\r\n        \r\n        emit Tranfered(success, data);\r\n        AccountInfo memory account_info = accounts_info[account];\r\n        if (account_info.account_balance != 0){\r\n            emit LogNeedToUnstake();\r\n        } else {\r\n            account_info.account_balance += amount;\r\n            account_info.stake_start_time = block.number;\r\n\r\n            accounts_info[account].account_balance = account_info.account_balance;\r\n            accounts_info[account].stake_start_time = account_info.stake_start_time;\r\n            _total_stake_balance += amount;\r\n            _total_staker +=1;\r\n\r\n            emit Staked(amount);\r\n        }\r\n    }\r\n \r\n    function calculate_account_reward(address account) private view returns(uint){\r\n        AccountInfo memory account_info = accounts_info[account];\r\n        uint reward = account_info.account_balance *(block.number - account_info.stake_start_time) *715*3/100000000000;\r\n        return reward;\r\n    }\r\n\r\n    function unstake() external{\r\n        address account = msg.sender;\r\n        accounts_info[account].unstake_start_time = block.number;\r\n        accounts_info[account].unstake_available_block = block.number + 10;\r\n\r\n        emit Unstaked();\r\n    }\r\n    \r\n    function harvest() public payable{\r\n        address account = msg.sender;\r\n\r\n        uint reward = calculate_account_reward(account);\r\n\t(bool success, bytes memory data) = _ft_contract.call{value: msg.value, gas: 5000}(\r\n        \tabi.encodeWithSignature(\"transferFrom(string,uint256)\",_owner,account,reward )\r\n        );\r\n        emit Tranfered(success, data);\r\n        _total_paid_reward_balance += reward;\r\n        accounts_info[account].stake_start_time = block.number;\r\n        accounts_info[account].unstake_start_time = 0;\r\n        accounts_info[account].unstake_available_block = 0;\r\n\r\n        emit Harvested();\r\n    } \r\n    \r\n    function withdraw() public payable{\r\n        address account = msg.sender;\r\n        uint reward = calculate_account_reward(account);\r\n\r\n        (bool success, bytes memory data) = _ft_contract.call{value: msg.value, gas: 5000}(\r\n        \tabi.encodeWithSignature(\"transferFrom(string,uint256)\",_owner,account,reward+ accounts_info[account].account_balance)\r\n        );\r\n        emit Tranfered(success, data);\r\n        AccountInfo memory account_info = accounts_info[account];\r\n        _total_paid_reward_balance += reward;\r\n        _total_stake_balance -= account_info.account_balance;\r\n        _total_staker -=1;\r\n\r\n        accounts_info[account].account_balance = 0;\r\n        accounts_info[account].stake_start_time = 0;\r\n        accounts_info[account].unstake_start_time = 0;\r\n        accounts_info[account].unstake_available_block = 0;\r\n\r\n        emit Withdrawed();\r\n    }\r\n\r\n}\r\n",
  "sourcePath": "C:\\blockchain\\contracts\\Staking.sol",
  "compiler": {
    "name": "solc",
    "version": "0.8.1+commit.df193b15.Emscripten.clang"
  },
  "schemaVersion": "3.4.7",
  "updatedAt": "2022-05-03T14:54:48.225Z",
  "networkType": "ethereum",
  "devdoc": {
    "kind": "dev",
    "methods": {},
    "version": 1
  },
  "userdoc": {
    "kind": "user",
    "methods": {},
    "version": 1
  }
}