{
  "contractName": "Token",
  "abi": [
    {
      "inputs": [],
      "stateMutability": "nonpayable",
      "type": "constructor"
    },
    {
      "anonymous": false,
      "inputs": [
        {
          "indexed": false,
          "internalType": "address",
          "name": "owner",
          "type": "address"
        },
        {
          "indexed": false,
          "internalType": "address",
          "name": "spender",
          "type": "address"
        },
        {
          "indexed": false,
          "internalType": "uint256",
          "name": "amount",
          "type": "uint256"
        }
      ],
      "name": "Approval",
      "type": "event"
    },
    {
      "anonymous": false,
      "inputs": [
        {
          "indexed": false,
          "internalType": "address",
          "name": "to",
          "type": "address"
        },
        {
          "indexed": false,
          "internalType": "uint256",
          "name": "amount",
          "type": "uint256"
        }
      ],
      "name": "Mint",
      "type": "event"
    },
    {
      "anonymous": false,
      "inputs": [
        {
          "indexed": false,
          "internalType": "address",
          "name": "from",
          "type": "address"
        },
        {
          "indexed": false,
          "internalType": "address",
          "name": "to",
          "type": "address"
        },
        {
          "indexed": false,
          "internalType": "uint256",
          "name": "amount",
          "type": "uint256"
        }
      ],
      "name": "Transfer",
      "type": "event"
    },
    {
      "inputs": [
        {
          "internalType": "address",
          "name": "to",
          "type": "address"
        },
        {
          "internalType": "uint256",
          "name": "amount",
          "type": "uint256"
        }
      ],
      "name": "mint",
      "outputs": [],
      "stateMutability": "nonpayable",
      "type": "function"
    },
    {
      "inputs": [
        {
          "internalType": "address",
          "name": "to",
          "type": "address"
        },
        {
          "internalType": "uint256",
          "name": "amount",
          "type": "uint256"
        }
      ],
      "name": "transfer",
      "outputs": [
        {
          "internalType": "bool",
          "name": "success",
          "type": "bool"
        }
      ],
      "stateMutability": "nonpayable",
      "type": "function"
    },
    {
      "inputs": [
        {
          "internalType": "address",
          "name": "from",
          "type": "address"
        },
        {
          "internalType": "address",
          "name": "to",
          "type": "address"
        },
        {
          "internalType": "uint256",
          "name": "amount",
          "type": "uint256"
        }
      ],
      "name": "transferFrom",
      "outputs": [
        {
          "internalType": "bool",
          "name": "success",
          "type": "bool"
        }
      ],
      "stateMutability": "nonpayable",
      "type": "function"
    },
    {
      "inputs": [
        {
          "internalType": "address",
          "name": "spender",
          "type": "address"
        },
        {
          "internalType": "uint256",
          "name": "tokens",
          "type": "uint256"
        }
      ],
      "name": "approve",
      "outputs": [
        {
          "internalType": "bool",
          "name": "success",
          "type": "bool"
        }
      ],
      "stateMutability": "nonpayable",
      "type": "function"
    },
    {
      "inputs": [
        {
          "internalType": "address",
          "name": "owner",
          "type": "address"
        }
      ],
      "name": "balanceOf",
      "outputs": [
        {
          "internalType": "uint256",
          "name": "balance",
          "type": "uint256"
        }
      ],
      "stateMutability": "view",
      "type": "function",
      "constant": true
    },
    {
      "inputs": [
        {
          "internalType": "address",
          "name": "owner",
          "type": "address"
        },
        {
          "internalType": "address",
          "name": "spender",
          "type": "address"
        }
      ],
      "name": "allowance",
      "outputs": [
        {
          "internalType": "uint256",
          "name": "",
          "type": "uint256"
        }
      ],
      "stateMutability": "view",
      "type": "function",
      "constant": true
    },
    {
      "inputs": [
        {
          "internalType": "address",
          "name": "contractAddress",
          "type": "address"
        }
      ],
      "name": "setStakeAddress",
      "outputs": [],
      "stateMutability": "nonpayable",
      "type": "function"
    },
    {
      "inputs": [
        {
          "internalType": "address",
          "name": "contractAddress",
          "type": "address"
        }
      ],
      "name": "setCharityAddress",
      "outputs": [],
      "stateMutability": "nonpayable",
      "type": "function"
    }
  ],
  "bytecode": "0x6080604052620186a0600355600060045534801561001c57600080fd5b50336000806101000a81548173ffffffffffffffffffffffffffffffffffffffff021916908373ffffffffffffffffffffffffffffffffffffffff160217905550610ecd8061006c6000396000f3fe608060405234801561001057600080fd5b50600436106100885760003560e01c806340c10f191161005b57806340c10f191461012557806370a0823114610141578063a9059cbb14610171578063dd62ed3e146101a157610088565b8063095ea7b31461008d5780630c9be46d146100bd57806323471d18146100d957806323b872dd146100f5575b600080fd5b6100a760048036038101906100a29190610bc6565b6101d1565b6040516100b49190610cb2565b60405180910390f35b6100d760048036038101906100d29190610b12565b610299565b005b6100f360048036038101906100ee9190610b12565b610335565b005b61010f600480360381019061010a9190610b77565b6103d1565b60405161011c9190610cb2565b60405180910390f35b61013f600480360381019061013a9190610bc6565b61063e565b005b61015b60048036038101906101569190610b12565b610833565b6040516101689190610ced565b60405180910390f35b61018b60048036038101906101869190610bc6565b61087c565b6040516101989190610cb2565b60405180910390f35b6101bb60048036038101906101b69190610b3b565b6108ce565b6040516101c89190610ced565b60405180910390f35b600081600660003373ffffffffffffffffffffffffffffffffffffffff1673ffffffffffffffffffffffffffffffffffffffff16815260200190815260200160002060008573ffffffffffffffffffffffffffffffffffffffff1673ffffffffffffffffffffffffffffffffffffffff168152602001908152602001600020819055507f8c5be1e5ebec7d5bd14f71427d1e84f3dd0314c0f7b2291e5b200ac8c7c3b92533848460405161028793929190610c52565b60405180910390a16001905092915050565b60008054906101000a900473ffffffffffffffffffffffffffffffffffffffff1673ffffffffffffffffffffffffffffffffffffffff163373ffffffffffffffffffffffffffffffffffffffff16146102f157600080fd5b80600160006101000a81548173ffffffffffffffffffffffffffffffffffffffff021916908373ffffffffffffffffffffffffffffffffffffffff16021790555050565b60008054906101000a900473ffffffffffffffffffffffffffffffffffffffff1673ffffffffffffffffffffffffffffffffffffffff163373ffffffffffffffffffffffffffffffffffffffff161461038d57600080fd5b80600260006101000a81548173ffffffffffffffffffffffffffffffffffffffff021916908373ffffffffffffffffffffffffffffffffffffffff16021790555050565b6000600160009054906101000a900473ffffffffffffffffffffffffffffffffffffffff1673ffffffffffffffffffffffffffffffffffffffff163373ffffffffffffffffffffffffffffffffffffffff16148061047c5750600260009054906101000a900473ffffffffffffffffffffffffffffffffffffffff1673ffffffffffffffffffffffffffffffffffffffff163373ffffffffffffffffffffffffffffffffffffffff16145b156104d05761048c848484610955565b7fddf252ad1be2c89b69c2b068fc378daa952ba7f163c4a11628f55a4df523b3ef8484846040516104bf93929190610c52565b60405180910390a160019050610637565b81600660008673ffffffffffffffffffffffffffffffffffffffff1673ffffffffffffffffffffffffffffffffffffffff16815260200190815260200160002060003373ffffffffffffffffffffffffffffffffffffffff1673ffffffffffffffffffffffffffffffffffffffff16815260200190815260200160002054101561055957600080fd5b81600660008673ffffffffffffffffffffffffffffffffffffffff1673ffffffffffffffffffffffffffffffffffffffff16815260200190815260200160002060003373ffffffffffffffffffffffffffffffffffffffff1673ffffffffffffffffffffffffffffffffffffffff16815260200190815260200160002060008282546105e59190610d6f565b925050819055506105f7848484610955565b7fddf252ad1be2c89b69c2b068fc378daa952ba7f163c4a11628f55a4df523b3ef84848460405161062a93929190610c52565b60405180910390a1600190505b9392505050565b60008054906101000a900473ffffffffffffffffffffffffffffffffffffffff1673ffffffffffffffffffffffffffffffffffffffff163373ffffffffffffffffffffffffffffffffffffffff16146106cc576040517f08c379a00000000000000000000000000000000000000000000000000000000081526004016106c390610ccd565b60405180910390fd5b600560008373ffffffffffffffffffffffffffffffffffffffff1673ffffffffffffffffffffffffffffffffffffffff1681526020019081526020016000205481600560008573ffffffffffffffffffffffffffffffffffffffff1673ffffffffffffffffffffffffffffffffffffffff168152602001908152602001600020546107579190610d19565b1161076157600080fd5b60006004546003546107739190610d6f565b90508181116107825780610784565b815b915081600560008573ffffffffffffffffffffffffffffffffffffffff1673ffffffffffffffffffffffffffffffffffffffff16815260200190815260200160002060008282546107d59190610d19565b9250508190555081600460008282546107ee9190610d19565b925050819055507f0f6798a560793a54c3bcfe86a93cde1e73087d944c0ea20544137d41213968858383604051610826929190610c89565b60405180910390a1505050565b6000600560008373ffffffffffffffffffffffffffffffffffffffff1673ffffffffffffffffffffffffffffffffffffffff168152602001908152602001600020549050919050565b6000610889338484610955565b7fddf252ad1be2c89b69c2b068fc378daa952ba7f163c4a11628f55a4df523b3ef3384846040516108bc93929190610c52565b60405180910390a16001905092915050565b6000600660008473ffffffffffffffffffffffffffffffffffffffff1673ffffffffffffffffffffffffffffffffffffffff16815260200190815260200160002060008373ffffffffffffffffffffffffffffffffffffffff1673ffffffffffffffffffffffffffffffffffffffff16815260200190815260200160002054905092915050565b80600560008573ffffffffffffffffffffffffffffffffffffffff1673ffffffffffffffffffffffffffffffffffffffff1681526020019081526020016000205410156109a157600080fd5b600560008373ffffffffffffffffffffffffffffffffffffffff1673ffffffffffffffffffffffffffffffffffffffff1681526020019081526020016000205481600560008573ffffffffffffffffffffffffffffffffffffffff1673ffffffffffffffffffffffffffffffffffffffff16815260200190815260200160002054610a2c9190610d19565b1015610a3757600080fd5b80600560008573ffffffffffffffffffffffffffffffffffffffff1673ffffffffffffffffffffffffffffffffffffffff1681526020019081526020016000206000828254610a869190610d6f565b9250508190555080600560008473ffffffffffffffffffffffffffffffffffffffff1673ffffffffffffffffffffffffffffffffffffffff1681526020019081526020016000206000828254610adc9190610d19565b92505081905550505050565b600081359050610af781610e69565b92915050565b600081359050610b0c81610e80565b92915050565b600060208284031215610b2457600080fd5b6000610b3284828501610ae8565b91505092915050565b60008060408385031215610b4e57600080fd5b6000610b5c85828601610ae8565b9250506020610b6d85828601610ae8565b9150509250929050565b600080600060608486031215610b8c57600080fd5b6000610b9a86828701610ae8565b9350506020610bab86828701610ae8565b9250506040610bbc86828701610afd565b9150509250925092565b60008060408385031215610bd957600080fd5b6000610be785828601610ae8565b9250506020610bf885828601610afd565b9150509250929050565b610c0b81610da3565b82525050565b610c1a81610db5565b82525050565b6000610c2d602483610d08565b9150610c3882610e1a565b604082019050919050565b610c4c81610de1565b82525050565b6000606082019050610c676000830186610c02565b610c746020830185610c02565b610c816040830184610c43565b949350505050565b6000604082019050610c9e6000830185610c02565b610cab6020830184610c43565b9392505050565b6000602082019050610cc76000830184610c11565b92915050565b60006020820190508181036000830152610ce681610c20565b9050919050565b6000602082019050610d026000830184610c43565b92915050565b600082825260208201905092915050565b6000610d2482610de1565b9150610d2f83610de1565b9250827fffffffffffffffffffffffffffffffffffffffffffffffffffffffffffffffff03821115610d6457610d63610deb565b5b828201905092915050565b6000610d7a82610de1565b9150610d8583610de1565b925082821015610d9857610d97610deb565b5b828203905092915050565b6000610dae82610dc1565b9050919050565b60008115159050919050565b600073ffffffffffffffffffffffffffffffffffffffff82169050919050565b6000819050919050565b7f4e487b7100000000000000000000000000000000000000000000000000000000600052601160045260246000fd5b7f4572726f722120596f7520617265206e6f742074686520746f6b656e2773206f60008201527f776e657200000000000000000000000000000000000000000000000000000000602082015250565b610e7281610da3565b8114610e7d57600080fd5b50565b610e8981610de1565b8114610e9457600080fd5b5056fea264697066735822122083a414f47b7889d46b4cc31ffd1332d0002fd88a09aff0821f9e88d3a90d47f864736f6c63430008010033",
  "immutableReferences": {},
  "source": "// SPDX-License-Identifier: MIT\r\npragma solidity ^0.8.1;\r\n\r\ncontract Token {\r\n    address private tokenOwner;\r\n    address private charityAddress;\r\n    address private stakeAddress;\r\n    uint totalSupply = 100000;\r\n    uint currentSupply = 0;\r\n    mapping(address => uint256) balances;\r\n    mapping(address => mapping (address => uint256)) allowed;\r\n\r\n    event Transfer(address from, address to, uint amount);\r\n    event Approval(address owner, address spender, uint amount);\r\n    event Mint(address to, uint amount);\r\n\r\n    constructor() {\r\n        tokenOwner = msg.sender;\r\n    }\r\n\r\n    function mint(address to, uint amount) external {\r\n        require(msg.sender == tokenOwner, \"Error! You are not the token's owner\");\r\n        require(balances[to] + amount > balances[to]);\r\n        uint mintableAmount = totalSupply - currentSupply;\r\n        amount = mintableAmount > amount? amount : mintableAmount;\r\n        balances[to] += amount;\r\n        currentSupply += amount;\r\n\r\n        emit Mint(to, amount);\r\n    }\r\n\r\n    function move(address from, address to, uint amount) internal {\r\n        require(balances[from] >= amount);\r\n        require(balances[to] + amount >= balances[to]);\r\n        balances[from] -= amount;\r\n        balances[to] += amount;\r\n    }\r\n\r\n    function transfer(address to, uint amount) external returns (bool success) {\r\n        move(msg.sender, to, amount);\r\n        emit Transfer(msg.sender, to, amount);\r\n        return true;\r\n    }\r\n\r\n    function transferFrom(address from, address to, uint amount) external returns (bool success) {\r\n        if (msg.sender == charityAddress || msg.sender == stakeAddress) {\r\n            move(from, to, amount);\r\n            emit Transfer(from, to, amount);\r\n            return true;\r\n        } else {\r\n            require(allowed[from][msg.sender] >= amount);\r\n            allowed[from][msg.sender] -= amount;\r\n            move(from, to, amount);\r\n            emit Transfer(from, to, amount);\r\n            return true;\r\n        }\r\n    }\r\n\r\n    function approve(address spender, uint tokens) external returns (bool success) {\r\n        allowed[msg.sender][spender] = tokens;\r\n        emit Approval(msg.sender, spender, tokens);\r\n        return true;\r\n    }\r\n\r\n    function balanceOf(address owner) external view returns (uint balance) {\r\n        return balances[owner];\r\n    }\r\n\r\n    function allowance(address owner, address spender) external view returns (uint) {\r\n        return allowed[owner][spender];\r\n    }\r\n\r\n    function setStakeAddress(address contractAddress) external {\r\n        require(msg.sender == tokenOwner);\r\n        stakeAddress = contractAddress;\r\n    }\r\n\r\n    function setCharityAddress(address contractAddress) external {\r\n        require(msg.sender == tokenOwner);\r\n        charityAddress = contractAddress;\r\n    }\r\n}",
  "sourcePath": "C:\\blockchain\\contracts\\Token.sol",
  "compiler": {
    "name": "solc",
    "version": "0.8.1+commit.df193b15.Emscripten.clang"
  },
  "schemaVersion": "3.4.7",
  "updatedAt": "2022-05-03T14:54:47.317Z",
  "networkType": "ethereum",
  "devdoc": {
    "kind": "dev",
    "methods": {},
    "version": 1
  },
  "userdoc": {
    "kind": "user",
    "methods": {},
    "version": 1
  }
}