{
  "contractName": "Voting",
  "abi": [
    {
      "inputs": [],
      "stateMutability": "nonpayable",
      "type": "constructor"
    },
    {
      "inputs": [
        {
          "internalType": "uint256",
          "name": "",
          "type": "uint256"
        }
      ],
      "name": "AcceptVoteAccounts",
      "outputs": [
        {
          "internalType": "address",
          "name": "",
          "type": "address"
        }
      ],
      "stateMutability": "view",
      "type": "function",
      "constant": true
    },
    {
      "inputs": [
        {
          "internalType": "uint256",
          "name": "",
          "type": "uint256"
        }
      ],
      "name": "DeclineVoteCampaign",
      "outputs": [
        {
          "internalType": "address",
          "name": "",
          "type": "address"
        }
      ],
      "stateMutability": "view",
      "type": "function",
      "constant": true
    },
    {
      "inputs": [],
      "name": "_accept_vote",
      "outputs": [
        {
          "internalType": "uint256",
          "name": "",
          "type": "uint256"
        }
      ],
      "stateMutability": "view",
      "type": "function",
      "constant": true
    },
    {
      "inputs": [],
      "name": "_total_voted",
      "outputs": [
        {
          "internalType": "uint256",
          "name": "",
          "type": "uint256"
        }
      ],
      "stateMutability": "view",
      "type": "function",
      "constant": true
    },
    {
      "inputs": [],
      "name": "isVoted",
      "outputs": [
        {
          "internalType": "bool",
          "name": "",
          "type": "bool"
        }
      ],
      "stateMutability": "view",
      "type": "function",
      "constant": true
    },
    {
      "inputs": [
        {
          "internalType": "bool",
          "name": "_votetype",
          "type": "bool"
        }
      ],
      "name": "vote_campaign",
      "outputs": [],
      "stateMutability": "nonpayable",
      "type": "function"
    },
    {
      "inputs": [],
      "name": "get_total_vote",
      "outputs": [
        {
          "internalType": "uint256",
          "name": "",
          "type": "uint256"
        }
      ],
      "stateMutability": "view",
      "type": "function",
      "constant": true
    },
    {
      "inputs": [],
      "name": "get_accept_vote",
      "outputs": [
        {
          "internalType": "uint256",
          "name": "",
          "type": "uint256"
        }
      ],
      "stateMutability": "view",
      "type": "function",
      "constant": true
    },
    {
      "inputs": [
        {
          "internalType": "uint256",
          "name": "n",
          "type": "uint256"
        }
      ],
      "name": "get_accept_account",
      "outputs": [
        {
          "internalType": "address",
          "name": "",
          "type": "address"
        }
      ],
      "stateMutability": "view",
      "type": "function",
      "constant": true
    },
    {
      "inputs": [
        {
          "internalType": "uint256",
          "name": "n",
          "type": "uint256"
        }
      ],
      "name": "get_decline_account",
      "outputs": [
        {
          "internalType": "address",
          "name": "",
          "type": "address"
        }
      ],
      "stateMutability": "view",
      "type": "function",
      "constant": true
    }
  ],
  "bytecode": "0x608060405234801561001057600080fd5b506000808190555060006001819055506109f98061002f6000396000f3fe608060405234801561001057600080fd5b506004361061009e5760003560e01c8063b94696c911610066578063b94696c914610149578063d5bd6cd914610179578063e881183a14610197578063e9be5e66146101c7578063f8448c68146101f75761009e565b80633bd64ddb146100a3578063454c9668146100c15780634abe4b7c146100df5780637b5bc2e41461010f578063b7b294411461012d575b600080fd5b6100ab610215565b6040516100b891906107f6565b60405180910390f35b6100c961021b565b6040516100d691906107f6565b60405180910390f35b6100f960048036038101906100f49190610727565b610224565b60405161010691906107a0565b60405180910390f35b610117610292565b60405161012491906107bb565b60405180910390f35b610147600480360381019061014291906106fe565b6102a5565b005b610163600480360381019061015e9190610727565b6105d8565b60405161017091906107a0565b60405180910390f35b610181610617565b60405161018e91906107f6565b60405180910390f35b6101b160048036038101906101ac9190610727565b61061d565b6040516101be91906107a0565b60405180910390f35b6101e160048036038101906101dc9190610727565b61065c565b6040516101ee91906107a0565b60405180910390f35b6101ff6106ca565b60405161020c91906107f6565b60405180910390f35b60005481565b60008054905090565b600060038281548110610260577f4e487b7100000000000000000000000000000000000000000000000000000000600052603260045260246000fd5b9060005260206000200160009054906101000a900473ffffffffffffffffffffffffffffffffffffffff169050919050565b600460009054906101000a900460ff1681565b600033905060005b60015481101561037e57600281815481106102f1577f4e487b7100000000000000000000000000000000000000000000000000000000600052603260045260246000fd5b9060005260206000200160009054906101000a900473ffffffffffffffffffffffffffffffffffffffff1673ffffffffffffffffffffffffffffffffffffffff168273ffffffffffffffffffffffffffffffffffffffff16141561036b576001600460006101000a81548160ff0219169083151502179055505b8080610376906108f4565b9150506102ad565b5060005b6001546000546103929190610878565b81101561046057600381815481106103d3577f4e487b7100000000000000000000000000000000000000000000000000000000600052603260045260246000fd5b9060005260206000200160009054906101000a900473ffffffffffffffffffffffffffffffffffffffff1673ffffffffffffffffffffffffffffffffffffffff168273ffffffffffffffffffffffffffffffffffffffff16141561044d576001600460006101000a81548160ff0219169083151502179055505b8080610458906108f4565b915050610382565b5060001515600460009054906101000a900460ff161515146104b7576040517f08c379a00000000000000000000000000000000000000000000000000000000081526004016104ae906107d6565b60405180910390fd5b81156105575760016000808282546104cf9190610822565b9250508190555060018060008282546104e89190610822565b925050819055506002819080600181540180825580915050600190039060005260206000200160009091909190916101000a81548173ffffffffffffffffffffffffffffffffffffffff021916908373ffffffffffffffffffffffffffffffffffffffff1602179055506105d4565b60016000808282546105699190610822565b925050819055506003819080600181540180825580915050600190039060005260206000200160009091909190916101000a81548173ffffffffffffffffffffffffffffffffffffffff021916908373ffffffffffffffffffffffffffffffffffffffff1602179055505b5050565b600281815481106105e857600080fd5b906000526020600020016000915054906101000a900473ffffffffffffffffffffffffffffffffffffffff1681565b60015481565b6003818154811061062d57600080fd5b906000526020600020016000915054906101000a900473ffffffffffffffffffffffffffffffffffffffff1681565b600060028281548110610698577f4e487b7100000000000000000000000000000000000000000000000000000000600052603260045260246000fd5b9060005260206000200160009054906101000a900473ffffffffffffffffffffffffffffffffffffffff169050919050565b6000600154905090565b6000813590506106e381610995565b92915050565b6000813590506106f8816109ac565b92915050565b60006020828403121561071057600080fd5b600061071e848285016106d4565b91505092915050565b60006020828403121561073957600080fd5b6000610747848285016106e9565b91505092915050565b610759816108ac565b82525050565b610768816108be565b82525050565b600061077b601783610811565b91506107868261096c565b602082019050919050565b61079a816108ea565b82525050565b60006020820190506107b56000830184610750565b92915050565b60006020820190506107d0600083018461075f565b92915050565b600060208201905081810360008301526107ef8161076e565b9050919050565b600060208201905061080b6000830184610791565b92915050565b600082825260208201905092915050565b600061082d826108ea565b9150610838836108ea565b9250827fffffffffffffffffffffffffffffffffffffffffffffffffffffffffffffffff0382111561086d5761086c61093d565b5b828201905092915050565b6000610883826108ea565b915061088e836108ea565b9250828210156108a1576108a061093d565b5b828203905092915050565b60006108b7826108ca565b9050919050565b60008115159050919050565b600073ffffffffffffffffffffffffffffffffffffffff82169050919050565b6000819050919050565b60006108ff826108ea565b91507fffffffffffffffffffffffffffffffffffffffffffffffffffffffffffffffff8214156109325761093161093d565b5b600182019050919050565b7f4e487b7100000000000000000000000000000000000000000000000000000000600052601160045260246000fd5b7f596f75206861766520616c726561647920766f7465642e000000000000000000600082015250565b61099e816108be565b81146109a957600080fd5b50565b6109b5816108ea565b81146109c057600080fd5b5056fea2646970667358221220ab2456ed8576cdaa20d6110506a4251c5dd396b5f5cfdb654d64f136afa8c6ff64736f6c63430008010033",
  "immutableReferences": {},
  "source": "// SPDX-License-Identifier: MIT\r\npragma solidity ^0.8.1;\r\ncontract Voting{\r\n    uint public _total_voted;\r\n    uint public _accept_vote;\r\n    address[] public AcceptVoteAccounts;\r\n    address[] public DeclineVoteCampaign;\r\n    bool public isVoted;\r\n\r\n    constructor(){\r\n        _total_voted = 0;\r\n        _accept_vote = 0;\r\n    }\r\n\r\n    function vote_campaign(bool _votetype) external{\r\n        address _vote_address = msg.sender;\r\n        for(uint i=0; i<_accept_vote; i++)\r\n            {if (_vote_address==AcceptVoteAccounts[i]) isVoted = true;}\r\n        for(uint i=0; i<_total_voted - _accept_vote; i++)\r\n            {if (_vote_address==DeclineVoteCampaign[i]) isVoted = true;}\r\n        require(isVoted==false,\"You have already voted.\");\r\n        if (_votetype) {\r\n            _total_voted += 1;\r\n            _accept_vote += 1;\r\n            AcceptVoteAccounts.push(_vote_address);\r\n        } else{\r\n            _total_voted += 1;\r\n            DeclineVoteCampaign.push(_vote_address);\r\n        }\r\n    }\r\n\r\n    function get_total_vote() public view returns(uint){ return _total_voted;}\r\n\r\n    function get_accept_vote() public view returns(uint){ return _accept_vote;}\r\n\r\n    function get_accept_account(uint n) public view returns(address) { return AcceptVoteAccounts[n];}\r\n\r\n    function get_decline_account(uint n) public view returns(address) { return DeclineVoteCampaign[n];}\r\n\r\n    \r\n}",
  "sourcePath": "C:\\blockchain\\contracts\\Voting.sol",
  "compiler": {
    "name": "solc",
    "version": "0.8.1+commit.df193b15.Emscripten.clang"
  },
  "schemaVersion": "3.4.7",
  "updatedAt": "2022-05-03T14:54:47.964Z",
  "networkType": "ethereum",
  "devdoc": {
    "kind": "dev",
    "methods": {},
    "version": 1
  },
  "userdoc": {
    "kind": "user",
    "methods": {},
    "version": 1
  }
}